{
  "contractName": "BookLibrary",
  "abi": [
    {
      "inputs": [
        {
          "internalType": "address",
          "name": "libTokenAddress",
          "type": "address"
        },
        {
          "internalType": "address",
          "name": "libWrapperAddress",
          "type": "address"
        }
      ],
      "stateMutability": "nonpayable",
      "type": "constructor"
    },
    {
      "anonymous": false,
      "inputs": [
        {
          "indexed": false,
          "internalType": "string",
          "name": "title",
          "type": "string"
        },
        {
          "indexed": false,
          "internalType": "address",
          "name": "user",
          "type": "address"
        }
      ],
      "name": "BookBorrowed",
      "type": "event"
    },
    {
      "anonymous": false,
      "inputs": [
        {
          "indexed": false,
          "internalType": "string",
          "name": "title",
          "type": "string"
        },
        {
          "indexed": false,
          "internalType": "address",
          "name": "user",
          "type": "address"
        }
      ],
      "name": "BookReturned",
      "type": "event"
    },
    {
      "anonymous": false,
      "inputs": [
        {
          "indexed": false,
          "internalType": "string",
          "name": "title",
          "type": "string"
        },
        {
          "indexed": false,
          "internalType": "uint256",
          "name": "copies",
          "type": "uint256"
        }
      ],
      "name": "LogAddedBook",
      "type": "event"
    },
    {
      "anonymous": false,
      "inputs": [
        {
          "indexed": true,
          "internalType": "address",
          "name": "previousOwner",
          "type": "address"
        },
        {
          "indexed": true,
          "internalType": "address",
          "name": "newOwner",
          "type": "address"
        }
      ],
      "name": "OwnershipTransferred",
      "type": "event"
    },
    {
      "inputs": [],
      "name": "LIBToken",
      "outputs": [
        {
          "internalType": "contract IERC20",
          "name": "",
          "type": "address"
        }
      ],
      "stateMutability": "view",
      "type": "function"
    },
    {
      "inputs": [
        {
          "internalType": "uint256",
          "name": "",
          "type": "uint256"
        }
      ],
      "name": "bookKey",
      "outputs": [
        {
          "internalType": "bytes32",
          "name": "",
          "type": "bytes32"
        }
      ],
      "stateMutability": "view",
      "type": "function"
    },
    {
      "inputs": [
        {
          "internalType": "bytes32",
          "name": "",
          "type": "bytes32"
        }
      ],
      "name": "books",
      "outputs": [
        {
          "internalType": "uint256",
          "name": "copies",
          "type": "uint256"
        },
        {
          "internalType": "string",
          "name": "title",
          "type": "string"
        }
      ],
      "stateMutability": "view",
      "type": "function"
    },
    {
      "inputs": [
        {
          "internalType": "address",
          "name": "",
          "type": "address"
        },
        {
          "internalType": "bytes32",
          "name": "",
          "type": "bytes32"
        }
      ],
      "name": "borrowedBook",
      "outputs": [
        {
          "internalType": "bool",
          "name": "",
          "type": "bool"
        }
      ],
      "stateMutability": "view",
      "type": "function"
    },
    {
      "inputs": [],
      "name": "owner",
      "outputs": [
        {
          "internalType": "address",
          "name": "",
          "type": "address"
        }
      ],
      "stateMutability": "view",
      "type": "function"
    },
    {
      "inputs": [],
      "name": "renounceOwnership",
      "outputs": [],
      "stateMutability": "nonpayable",
      "type": "function"
    },
    {
      "inputs": [
        {
          "internalType": "address",
          "name": "newOwner",
          "type": "address"
        }
      ],
      "name": "transferOwnership",
      "outputs": [],
      "stateMutability": "nonpayable",
      "type": "function"
    },
    {
      "inputs": [],
      "name": "wrapperContract",
      "outputs": [
        {
          "internalType": "contract LIBWrapper",
          "name": "",
          "type": "address"
        }
      ],
      "stateMutability": "view",
      "type": "function"
    },
    {
      "stateMutability": "payable",
      "type": "receive"
    },
    {
      "inputs": [
        {
          "internalType": "string",
          "name": "_title",
          "type": "string"
        },
        {
          "internalType": "uint256",
          "name": "_copies",
          "type": "uint256"
        }
      ],
      "name": "addBook",
      "outputs": [],
      "stateMutability": "nonpayable",
      "type": "function"
    },
    {
      "inputs": [
        {
          "internalType": "bytes32",
          "name": "bookId",
          "type": "bytes32"
        }
      ],
      "name": "borrowBook",
      "outputs": [],
      "stateMutability": "nonpayable",
      "type": "function"
    },
    {
      "inputs": [
        {
          "internalType": "bytes32",
          "name": "bookId",
          "type": "bytes32"
        }
      ],
      "name": "returnBook",
      "outputs": [],
      "stateMutability": "nonpayable",
      "type": "function"
    },
    {
      "inputs": [
        {
          "internalType": "bytes32",
          "name": "bookId",
          "type": "bytes32"
        }
      ],
      "name": "getAddressesBorrowedBook",
      "outputs": [
        {
          "internalType": "address[]",
          "name": "_book",
          "type": "address[]"
        }
      ],
      "stateMutability": "view",
      "type": "function"
    },
    {
      "inputs": [
        {
          "internalType": "bytes32",
          "name": "bookId",
          "type": "bytes32"
        }
      ],
      "name": "getBorrowedByAddress",
      "outputs": [
        {
          "internalType": "bool",
          "name": "_isBorrowed",
          "type": "bool"
        }
      ],
      "stateMutability": "view",
      "type": "function"
    },
    {
      "inputs": [],
      "name": "getNumberOfBooks",
      "outputs": [
        {
          "internalType": "uint256",
          "name": "_numberOfBooks",
          "type": "uint256"
        }
      ],
      "stateMutability": "view",
      "type": "function"
    },
    {
      "inputs": [],
      "name": "unwrapToken",
      "outputs": [],
      "stateMutability": "nonpayable",
      "type": "function"
    },
    {
      "inputs": [],
      "name": "getAmount",
      "outputs": [
        {
          "internalType": "uint256",
          "name": "_amount",
          "type": "uint256"
        }
      ],
      "stateMutability": "view",
      "type": "function"
    }
  ],
  "bytecode": "0x608060405267016345785d8a000060045534801561001c57600080fd5b50604051620015043803806200150483398101604081905261003d916100e2565b60006100476100c2565b600080546001600160a01b0319166001600160a01b0383169081178255604051929350917f8be0079c531659141344cd1fd0a4f28419497f9722a3daafe3b4186f6b6457e0908290a350600180546001600160a01b039384166001600160a01b03199182161790915560028054929093169116179055610114565b3390565b80516001600160a01b03811681146100dd57600080fd5b919050565b600080604083850312156100f4578182fd5b6100fd836100c6565b915061010b602084016100c6565b90509250929050565b6113e080620001246000396000f3fe6080604052600436106100f75760003560e01c80638da5cb5b1161008a578063d25a434811610059578063d25a434814610299578063d321fe29146102b9578063e2e8b935146102ce578063f2fde38b146102e3576100fe565b80638da5cb5b14610222578063bdba8faf14610237578063bddc6fa71461024c578063c0d0668b14610279576100fe565b8063637a3872116100c6578063637a3872146101ab578063715018a6146101cb5780638625f9d2146101e05780638a3ec58e146101f5576100fe565b80630c0dee701461010357806312775c161461013a5780631ba3192b1461015c5780634d162aa21461017e576100fe565b366100fe57005b600080fd5b34801561010f57600080fd5b5061012361011e366004610f15565b610303565b604051610131929190611327565b60405180910390f35b34801561014657600080fd5b5061015a610155366004610f15565b6103aa565b005b34801561016857600080fd5b50610171610460565b6040516101319190611036565b34801561018a57600080fd5b5061019e610199366004610f15565b61046f565b60405161013191906110f9565b3480156101b757600080fd5b5061015a6101c6366004610f2d565b610490565b3480156101d757600080fd5b5061015a6106c9565b3480156101ec57600080fd5b5061019e61078a565b34801561020157600080fd5b50610215610210366004610f15565b610790565b60405161013191906110a1565b34801561022e57600080fd5b50610171610803565b34801561024357600080fd5b5061015a610812565b34801561025857600080fd5b5061026c610267366004610ecc565b6109ad565b60405161013191906110ee565b34801561028557600080fd5b5061026c610294366004610f15565b6109cd565b3480156102a557600080fd5b5061015a6102b4366004610f15565b6109ed565b3480156102c557600080fd5b5061019e610c42565b3480156102da57600080fd5b50610171610c46565b3480156102ef57600080fd5b5061015a6102fe366004610eab565b610c55565b6005602090815260009182526040918290208054600180830180548651600293821615610100026000190190911692909204601f8101869004860283018601909652858252919492939092908301828280156103a05780601f10610375576101008083540402835291602001916103a0565b820191906000526020600020905b81548152906001019060200180831161038357829003601f168201915b5050505050905082565b6000818152600560209081526040808320338452600683528184208585529092529091205460ff166103f75760405162461bcd60e51b81526004016103ee9061125c565b60405180910390fd5b33600081815260066020908152604080832086845290915290819020805460ff1916905582546001908101845590517ff1b2f3d040d6eaa2f46fc6969cded1c5e090aed7039a4e447f1f02aeda4067c59261045492850191611124565b60405180910390a15050565b6001546001600160a01b031681565b6003818154811061047f57600080fd5b600091825260209091200154905081565b610498610d6c565b6000546001600160a01b039081169116146104fa576040805162461bcd60e51b815260206004820181905260248201527f4f776e61626c653a2063616c6c6572206973206e6f7420746865206f776e6572604482015290519081900360640190fd5b81816060829050600081511180156105125750600082115b61052e5760405162461bcd60e51b81526004016103ee906111b7565b846005600082604051602001610544919061101a565b60405160208183030381529060405280519060200120815260200190815260200160002060010180546001816001161561010002031660029004905060001461059f5760405162461bcd60e51b81526004016103ee906111ee565b60606105a9610d70565b604051806060016040528088815260200189815260200183815250905080600560008a6040516020016105dc919061101a565b604051602081830303815290604052805190602001208152602001908152602001600020600082015181600001556020820151816001019080519060200190610626929190610d91565b5060408201518051610642916002840191602090910190610e1d565b50905050600388604051602001610659919061101a565b60408051601f19818403018152908290528051602091820120835460018101855560009485529190932001919091557f2f1c1d3833dc0931208a347b2958819919a068ec442f194eae6b80146cb35af6906106b7908a908a90611102565b60405180910390a15050505050505050565b6106d1610d6c565b6000546001600160a01b03908116911614610733576040805162461bcd60e51b815260206004820181905260248201527f4f776e61626c653a2063616c6c6572206973206e6f7420746865206f776e6572604482015290519081900360640190fd5b600080546040516001600160a01b03909116907f8be0079c531659141344cd1fd0a4f28419497f9722a3daafe3b4186f6b6457e0908390a36000805473ffffffffffffffffffffffffffffffffffffffff19169055565b60035490565b60008181526005602090815260409182902060028101805484518185028101850190955280855260609492938301828280156107f557602002820191906000526020600020905b81546001600160a01b031681526001909101906020018083116107d7575b50505050509150505b919050565b6000546001600160a01b031690565b61081a610d6c565b6000546001600160a01b0390811691161461087c576040805162461bcd60e51b815260206004820181905260248201527f4f776e61626c653a2063616c6c6572206973206e6f7420746865206f776e6572604482015290519081900360640190fd5b600154600480546040517f095ea7b30000000000000000000000000000000000000000000000000000000081527390f5b5eb9fd37306a78d5ef28123ef5dd9136e96936001600160a01b03169263095ea7b3926108db92869201611088565b602060405180830381600087803b1580156108f557600080fd5b505af1158015610909573d6000803e3d6000fd5b505050506040513d601f19601f8201168201806040525081019061092d9190610ef5565b50600254600480546040517fde0e9a3e0000000000000000000000000000000000000000000000000000000081526001600160a01b039093169263de0e9a3e926109789291016110f9565b600060405180830381600087803b15801561099257600080fd5b505af11580156109a6573d6000803e3d6000fd5b5050505050565b600660209081526000928352604080842090915290825290205460ff1681565b336000908152600660209081526040808320938352929052205460ff1690565b60008181526005602052604090208054610a195760405162461bcd60e51b81526004016103ee906112f0565b33600090815260066020908152604080832085845290915290205460ff1615610a545760405162461bcd60e51b81526004016103ee906112b9565b600480546001546040517fdd62ed3e00000000000000000000000000000000000000000000000000000000815291926001600160a01b039091169163dd62ed3e91610aa391339130910161104a565b60206040518083038186803b158015610abb57600080fd5b505afa158015610acf573d6000803e3d6000fd5b505050506040513d601f19601f82011682018060405250810190610af39190610fc9565b1015610b115760405162461bcd60e51b81526004016103ee90611225565b600154600480546040517f23b872dd0000000000000000000000000000000000000000000000000000000081526001600160a01b03909316926323b872dd92610b5e923392309201611064565b602060405180830381600087803b158015610b7857600080fd5b505af1158015610b8c573d6000803e3d6000fd5b505050506040513d601f19601f82011682018060405250810190610bb09190610ef5565b503360008181526006602090815260408083208684528252808320805460ff19166001908117909155600286018054808301825590855292909320909101805473ffffffffffffffffffffffffffffffffffffffff1916841790558354600019018455517f469d7b1cb358edcbc2c8e949b8a6598672e51661418984c55d85a904a4b220539261045492850191611124565b4790565b6002546001600160a01b031681565b610c5d610d6c565b6000546001600160a01b03908116911614610cbf576040805162461bcd60e51b815260206004820181905260248201527f4f776e61626c653a2063616c6c6572206973206e6f7420746865206f776e6572604482015290519081900360640190fd5b6001600160a01b038116610d045760405162461bcd60e51b81526004018080602001828103825260268152602001806113856026913960400191505060405180910390fd5b600080546040516001600160a01b03808516939216917f8be0079c531659141344cd1fd0a4f28419497f9722a3daafe3b4186f6b6457e091a36000805473ffffffffffffffffffffffffffffffffffffffff19166001600160a01b0392909216919091179055565b3390565b60405180606001604052806000815260200160608152602001606081525090565b828054600181600116156101000203166002900490600052602060002090601f016020900481019282610dc75760008555610e0d565b82601f10610de057805160ff1916838001178555610e0d565b82800160010185558215610e0d579182015b82811115610e0d578251825591602001919060010190610df2565b50610e19929150610e7f565b5090565b828054828255906000526020600020908101928215610e0d579160200282015b82811115610e0d578251825473ffffffffffffffffffffffffffffffffffffffff19166001600160a01b03909116178255602090920191600190910190610e3d565b5b80821115610e195760008155600101610e80565b80356001600160a01b03811681146107fe57600080fd5b600060208284031215610ebc578081fd5b610ec582610e94565b9392505050565b60008060408385031215610ede578081fd5b610ee783610e94565b946020939093013593505050565b600060208284031215610f06578081fd5b81518015158114610ec5578182fd5b600060208284031215610f26578081fd5b5035919050565b60008060408385031215610f3f578182fd5b823567ffffffffffffffff80821115610f56578384fd5b818501915085601f830112610f69578384fd5b813581811115610f7557fe5b6040516020601f8301601f1916820181018481118382101715610f9457fe5b6040528282528483018101891015610faa578687fd5b8281860182840137918101820195909552939694909301359450505050565b600060208284031215610fda578081fd5b5051919050565b6001600160a01b03169052565b60008151808452611006816020860160208601611354565b601f01601f19169290920160200192915050565b6000825161102c818460208701611354565b9190910192915050565b6001600160a01b0391909116815260200190565b6001600160a01b0392831681529116602082015260400190565b6001600160a01b039384168152919092166020820152604081019190915260600190565b6001600160a01b03929092168252602082015260400190565b6020808252825182820181905260009190848201906040850190845b818110156110e25783516001600160a01b0316835292840192918401916001016110bd565b50909695505050505050565b901515815260200190565b90815260200190565b6000604082526111156040830185610fee565b90508260208301529392505050565b6000604082016040835281855460018082166000811461114b5760018114611169576111a2565b60028304607f16855260ff19831660608801526080870193506111a2565b600283048086526111798a611348565b875b828110156111985781548a8201606001529084019060200161117b565b8901606001955050505b5050508092505050610ec56020830184610fe1565b60208082526017908201527f426f6f6b2064617461206973206e6f742076616c696421000000000000000000604082015260600190565b6020808252601c908201527f5468697320626f6f6b2077617320616c72656164792061646465642100000000604082015260600190565b60208082526019908201527f546f6b656e203120616c6c6f77616e636520746f6f206c6f7700000000000000604082015260600190565b6020808252602a908201527f596f752063616e2072657475726e20626f6f6b207468617420796f7520646f6e60408201527f277420626f72726f772100000000000000000000000000000000000000000000606082015260800190565b6020808252601b908201527f5468697320626f6f6b20697320616c72656164792074616b656e210000000000604082015260600190565b60208082526013908201527f5468657265206973206e6f20636f706965732e00000000000000000000000000604082015260600190565b6000838252604060208301526113406040830184610fee565b949350505050565b60009081526020902090565b60005b8381101561136f578181015183820152602001611357565b8381111561137e576000848401525b5050505056fe4f776e61626c653a206e6577206f776e657220697320746865207a65726f2061646472657373a264697066735822122005ef13e226ab3346928bbcaa715474f30095c41cfc095d7472dd6154dd6eb9f364736f6c63430007050033",
  "source": "// SPDX-License-Identifier: UNLICENSED\npragma solidity ^0.7.5;\npragma experimental ABIEncoderV2;\n\nimport \"@openzeppelin/contracts/access/Ownable.sol\";\nimport \"@openzeppelin/contracts/token/ERC20/IERC20.sol\";\nimport \"./LIBWrapper.sol\";\n\n// import \"./LIB.sol\";\n\ncontract BookLibrary is Ownable {\n\tIERC20 public LIBToken; \n    LIBWrapper public wrapperContract;\n\n    constructor(address libTokenAddress, address libWrapperAddress) public {\n\t   LIBToken = IERC20(libTokenAddress);\n       wrapperContract = LIBWrapper(libWrapperAddress);\n    }\n    \n    struct Book {\n        uint copies;\n        string title;\n        address[] bookBorrowedAddresses;\n    }\n    \n    bytes32[] public bookKey;\n    uint256 borrowPrice = 100000000000000000;\n\n    mapping (bytes32 => Book) public books;\n    mapping (address => mapping(bytes32 => bool)) public borrowedBook;\n\n    event LogAddedBook(string title, uint copies);\n    event BookBorrowed(string title, address user);\n    event BookReturned(string title, address user);\n    \n    // Check if book data is valid\n    modifier validBookData(string memory _title, uint _copies) {\n        bytes memory tempTitle = bytes(_title);\n        require(tempTitle.length > 0 && _copies > 0, \"Book data is not valid!\");\n        _;\n    }\n    \n    // Check if book is not already added by title\n    modifier bookDoesNotExist(string memory _title) {\n        require(bytes(books[keccak256(abi.encodePacked(_title))].title).length == 0  , \"This book was already added!\");\n        _;\n    }\n    \n    // Add a book to the library\n    function addBook(string memory _title, uint _copies) public onlyOwner validBookData(_title, _copies) bookDoesNotExist(_title) {\n         address[] memory borrowed;\n         Book memory newBook = Book(_copies, _title, borrowed);\n         books[keccak256(abi.encodePacked(_title))] = newBook;\n         bookKey.push(keccak256(abi.encodePacked(_title)));\n         emit LogAddedBook(_title, _copies);\n    }\n    \n    // Borrow book by id\n    function borrowBook(bytes32 bookId) public {\n        Book storage book = books[bookId];\n        \n        // Must book have copies\n        require(book.copies > 0, \"There is no copies.\");\n        \n        require(!borrowedBook[msg.sender][bookId], \"This book is already taken!\");\n        require(LIBToken.allowance(msg.sender, address(this)) >= borrowPrice, \"Token 1 allowance too low\");\n        LIBToken.transferFrom(msg.sender, address(this), borrowPrice);\n\n        borrowedBook[msg.sender][bookId] = true;        \n        book.bookBorrowedAddresses.push(msg.sender);\n        book.copies--;\n        \n        emit BookBorrowed(book.title, msg.sender);\n    }\n    \n   // Return a book by id\n    function returnBook(bytes32 bookId) public {\n        Book storage book = books[bookId];\n        \n        require(borrowedBook[msg.sender][bookId], \"You can return book that you don't borrow!\");\n        borrowedBook[msg.sender][bookId] = false;\n       \n        book.copies++;\n        \n        emit BookReturned(book.title, msg.sender);\n    }\n    \n    //Return all addressess borrowed a book by id \n    function getAddressesBorrowedBook(bytes32 bookId) public view returns (address[] memory _book) {\n        Book storage book = books[bookId];\n        return book.bookBorrowedAddresses;\n    }\n\n    //Return book borrowed by address and title \n    function getBorrowedByAddress(bytes32 bookId) public view returns (bool _isBorrowed) {\n        bool isBorrowed = borrowedBook[msg.sender][bookId];\n        return isBorrowed;\n    }\n    \n    //Return number of books\n    function getNumberOfBooks() public view returns (uint _numberOfBooks) {\n        return bookKey.length;\n    }\n\n    function unwrapToken() public onlyOwner {\n        address wrapperAddress = 0x90f5b5EB9fd37306A78d5ef28123ef5dd9136E96;\n        LIBToken.approve(wrapperAddress, borrowPrice);\n        wrapperContract.unwrap(borrowPrice);\n    }\n\n    function getAmount() public view returns (uint _amount) {\n        return address(this).balance;\n    }\n\n    receive() external payable {\n\t} \n\n\n    \n    // call wrap contract and approve to unwrap msg sender is this contract\n\n    // call wrap contract and unwrap\n\n    // withdraw (value) and transfer to msg sender and value\n    \n\n    // when borrow book to send the amount to the admin account (multi sig wallet)\n\n    // make function to set the borrow price\n}",
  "sourcePath": "/Users/ognyanchikov/Projects/Library - course/contracts/BookLibrary.sol",
  "compiler": {
    "name": "solc",
    "version": "0.7.5+commit.eb77ed08.Emscripten.clang",
    "optimizer": true,
    "runs": 999
  },
  "schemaVersion": "2.3.3",
  "updatedAt": "2021-01-28T18:07:10.405Z"
}