{
  "contractName": "BookLibrary",
  "abi": [
    {
      "anonymous": false,
      "inputs": [
        {
          "indexed": false,
          "internalType": "string",
          "name": "title",
          "type": "string"
        },
        {
          "indexed": false,
          "internalType": "address",
          "name": "user",
          "type": "address"
        }
      ],
      "name": "BookBorrowed",
      "type": "event"
    },
    {
      "anonymous": false,
      "inputs": [
        {
          "indexed": false,
          "internalType": "string",
          "name": "title",
          "type": "string"
        },
        {
          "indexed": false,
          "internalType": "address",
          "name": "user",
          "type": "address"
        }
      ],
      "name": "BookReturned",
      "type": "event"
    },
    {
      "anonymous": false,
      "inputs": [
        {
          "indexed": false,
          "internalType": "string",
          "name": "title",
          "type": "string"
        },
        {
          "indexed": false,
          "internalType": "uint256",
          "name": "copies",
          "type": "uint256"
        }
      ],
      "name": "LogAddedBook",
      "type": "event"
    },
    {
      "anonymous": false,
      "inputs": [
        {
          "indexed": true,
          "internalType": "address",
          "name": "previousOwner",
          "type": "address"
        },
        {
          "indexed": true,
          "internalType": "address",
          "name": "newOwner",
          "type": "address"
        }
      ],
      "name": "OwnershipTransferred",
      "type": "event"
    },
    {
      "inputs": [
        {
          "internalType": "uint256",
          "name": "",
          "type": "uint256"
        }
      ],
      "name": "bookKey",
      "outputs": [
        {
          "internalType": "bytes32",
          "name": "",
          "type": "bytes32"
        }
      ],
      "stateMutability": "view",
      "type": "function"
    },
    {
      "inputs": [
        {
          "internalType": "bytes32",
          "name": "",
          "type": "bytes32"
        }
      ],
      "name": "books",
      "outputs": [
        {
          "internalType": "uint256",
          "name": "copies",
          "type": "uint256"
        },
        {
          "internalType": "string",
          "name": "title",
          "type": "string"
        }
      ],
      "stateMutability": "view",
      "type": "function"
    },
    {
      "inputs": [
        {
          "internalType": "address",
          "name": "",
          "type": "address"
        },
        {
          "internalType": "bytes32",
          "name": "",
          "type": "bytes32"
        }
      ],
      "name": "borrowedBook",
      "outputs": [
        {
          "internalType": "bool",
          "name": "",
          "type": "bool"
        }
      ],
      "stateMutability": "view",
      "type": "function"
    },
    {
      "inputs": [],
      "name": "owner",
      "outputs": [
        {
          "internalType": "address",
          "name": "",
          "type": "address"
        }
      ],
      "stateMutability": "view",
      "type": "function"
    },
    {
      "inputs": [],
      "name": "renounceOwnership",
      "outputs": [],
      "stateMutability": "nonpayable",
      "type": "function"
    },
    {
      "inputs": [
        {
          "internalType": "address",
          "name": "newOwner",
          "type": "address"
        }
      ],
      "name": "transferOwnership",
      "outputs": [],
      "stateMutability": "nonpayable",
      "type": "function"
    },
    {
      "inputs": [
        {
          "internalType": "string",
          "name": "_title",
          "type": "string"
        },
        {
          "internalType": "uint256",
          "name": "_copies",
          "type": "uint256"
        }
      ],
      "name": "addBook",
      "outputs": [],
      "stateMutability": "nonpayable",
      "type": "function"
    },
    {
      "inputs": [
        {
          "internalType": "bytes32",
          "name": "bookId",
          "type": "bytes32"
        }
      ],
      "name": "borrowBook",
      "outputs": [],
      "stateMutability": "nonpayable",
      "type": "function"
    },
    {
      "inputs": [
        {
          "internalType": "bytes32",
          "name": "bookId",
          "type": "bytes32"
        }
      ],
      "name": "returnBook",
      "outputs": [],
      "stateMutability": "nonpayable",
      "type": "function"
    },
    {
      "inputs": [
        {
          "internalType": "bytes32",
          "name": "bookId",
          "type": "bytes32"
        }
      ],
      "name": "getAddressesBorrowedBook",
      "outputs": [
        {
          "internalType": "address[]",
          "name": "_book",
          "type": "address[]"
        }
      ],
      "stateMutability": "view",
      "type": "function"
    },
    {
      "inputs": [
        {
          "internalType": "bytes32",
          "name": "bookId",
          "type": "bytes32"
        }
      ],
      "name": "getBorrowedByAddress",
      "outputs": [
        {
          "internalType": "bool",
          "name": "_isBorrowed",
          "type": "bool"
        }
      ],
      "stateMutability": "view",
      "type": "function"
    },
    {
      "inputs": [],
      "name": "getNumberOfBooks",
      "outputs": [
        {
          "internalType": "uint256",
          "name": "_numberOfBooks",
          "type": "uint256"
        }
      ],
      "stateMutability": "view",
      "type": "function"
    }
  ],
  "bytecode": "0x608060405234801561001057600080fd5b5060006100216100c460201b60201c565b9050806000806101000a81548173ffffffffffffffffffffffffffffffffffffffff021916908373ffffffffffffffffffffffffffffffffffffffff1602179055508073ffffffffffffffffffffffffffffffffffffffff16600073ffffffffffffffffffffffffffffffffffffffff167f8be0079c531659141344cd1fd0a4f28419497f9722a3daafe3b4186f6b6457e060405160405180910390a3506100cc565b600033905090565b61191d806100db6000396000f3fe608060405234801561001057600080fd5b50600436106100b45760003560e01c80638a3ec58e116100715780638a3ec58e1461017a5780638da5cb5b146101aa578063bddc6fa7146101c8578063c0d0668b146101f8578063d25a434814610228578063f2fde38b14610244576100b4565b80630c0dee70146100b957806312775c16146100ea5780634d162aa214610106578063637a387214610136578063715018a6146101525780638625f9d21461015c575b600080fd5b6100d360048036038101906100ce919061111f565b610260565b6040516100e1929190611699565b60405180910390f35b61010460048036038101906100ff919061111f565b61031c565b005b610120600480360381019061011b919061119c565b61048d565b60405161012d9190611563565b60405180910390f35b610150600480360381019061014b9190611148565b6104b1565b005b61015a61079e565b005b610164610924565b604051610171919061167e565b60405180910390f35b610194600480360381019061018f919061111f565b610931565b6040516101a19190611526565b60405180910390f35b6101b26109db565b6040516101bf919061150b565b60405180910390f35b6101e260048036038101906101dd91906110e3565b610a04565b6040516101ef9190611548565b60405180910390f35b610212600480360381019061020d919061111f565b610a33565b60405161021f9190611548565b60405180910390f35b610242600480360381019061023d919061111f565b610a9f565b005b61025e600480360381019061025991906110ba565b610cbe565b005b6002602052806000526040600020600091509050806000015490806001018054600181600116156101000203166002900480601f0160208091040260200160405190810160405280929190818152602001828054600181600116156101000203166002900480156103125780601f106102e757610100808354040283529160200191610312565b820191906000526020600020905b8154815290600101906020018083116102f557829003601f168201915b5050505050905082565b6000600260008381526020019081526020016000209050600360003373ffffffffffffffffffffffffffffffffffffffff1673ffffffffffffffffffffffffffffffffffffffff168152602001908152602001600020600083815260200190815260200160002060009054906101000a900460ff166103d0576040517f08c379a00000000000000000000000000000000000000000000000000000000081526004016103c79061161e565b60405180910390fd5b6000600360003373ffffffffffffffffffffffffffffffffffffffff1673ffffffffffffffffffffffffffffffffffffffff168152602001908152602001600020600084815260200190815260200160002060006101000a81548160ff02191690831515021790555080600001600081548092919060010191905055507ff1b2f3d040d6eaa2f46fc6969cded1c5e090aed7039a4e447f1f02aeda4067c581600101336040516104819291906115ae565b60405180910390a15050565b6001818154811061049d57600080fd5b906000526020600020016000915090505481565b6104b9610ec9565b73ffffffffffffffffffffffffffffffffffffffff1660008054906101000a900473ffffffffffffffffffffffffffffffffffffffff1673ffffffffffffffffffffffffffffffffffffffff1614610579576040517f08c379a00000000000000000000000000000000000000000000000000000000081526004018080602001828103825260208152602001807f4f776e61626c653a2063616c6c6572206973206e6f7420746865206f776e657281525060200191505060405180910390fd5b81816060829050600081511180156105915750600082115b6105d0576040517f08c379a00000000000000000000000000000000000000000000000000000000081526004016105c7906115de565b60405180910390fd5b84600060026000836040516020016105e891906114f4565b60405160208183030381529060405280519060200120815260200190815260200160002060010180546001816001161561010002031660029004905014610664576040517f08c379a000000000000000000000000000000000000000000000000000000000815260040161065b906115fe565b60405180910390fd5b606061066e610ed1565b604051806060016040528088815260200189815260200183815250905080600260008a6040516020016106a191906114f4565b6040516020818303038152906040528051906020012081526020019081526020016000206000820151816000015560208201518160010190805190602001906106eb929190610ef2565b506040820151816002019080519060200190610708929190610f80565b5090505060018860405160200161071f91906114f4565b6040516020818303038152906040528051906020012090806001815401808255809150506001900390600052602060002001600090919091909150557f2f1c1d3833dc0931208a347b2958819919a068ec442f194eae6b80146cb35af6888860405161078c92919061157e565b60405180910390a15050505050505050565b6107a6610ec9565b73ffffffffffffffffffffffffffffffffffffffff1660008054906101000a900473ffffffffffffffffffffffffffffffffffffffff1673ffffffffffffffffffffffffffffffffffffffff1614610866576040517f08c379a00000000000000000000000000000000000000000000000000000000081526004018080602001828103825260208152602001807f4f776e61626c653a2063616c6c6572206973206e6f7420746865206f776e657281525060200191505060405180910390fd5b600073ffffffffffffffffffffffffffffffffffffffff1660008054906101000a900473ffffffffffffffffffffffffffffffffffffffff1673ffffffffffffffffffffffffffffffffffffffff167f8be0079c531659141344cd1fd0a4f28419497f9722a3daafe3b4186f6b6457e060405160405180910390a360008060006101000a81548173ffffffffffffffffffffffffffffffffffffffff021916908373ffffffffffffffffffffffffffffffffffffffff160217905550565b6000600180549050905090565b60606000600260008481526020019081526020016000209050806002018054806020026020016040519081016040528092919081815260200182805480156109ce57602002820191906000526020600020905b8160009054906101000a900473ffffffffffffffffffffffffffffffffffffffff1673ffffffffffffffffffffffffffffffffffffffff1681526020019060010190808311610984575b5050505050915050919050565b60008060009054906101000a900473ffffffffffffffffffffffffffffffffffffffff16905090565b60036020528160005260406000206020528060005260406000206000915091509054906101000a900460ff1681565b600080600360003373ffffffffffffffffffffffffffffffffffffffff1673ffffffffffffffffffffffffffffffffffffffff168152602001908152602001600020600084815260200190815260200160002060009054906101000a900460ff16905080915050919050565b60006002600083815260200190815260200160002090506000816000015411610afd576040517f08c379a0000000000000000000000000000000000000000000000000000000008152600401610af49061165e565b60405180910390fd5b600360003373ffffffffffffffffffffffffffffffffffffffff1673ffffffffffffffffffffffffffffffffffffffff168152602001908152602001600020600083815260200190815260200160002060009054906101000a900460ff1615610b9b576040517f08c379a0000000000000000000000000000000000000000000000000000000008152600401610b929061163e565b60405180910390fd5b6001600360003373ffffffffffffffffffffffffffffffffffffffff1673ffffffffffffffffffffffffffffffffffffffff168152602001908152602001600020600084815260200190815260200160002060006101000a81548160ff02191690831515021790555080600201339080600181540180825580915050600190039060005260206000200160009091909190916101000a81548173ffffffffffffffffffffffffffffffffffffffff021916908373ffffffffffffffffffffffffffffffffffffffff1602179055508060000160008154809291906001900391905055507f469d7b1cb358edcbc2c8e949b8a6598672e51661418984c55d85a904a4b220538160010133604051610cb29291906115ae565b60405180910390a15050565b610cc6610ec9565b73ffffffffffffffffffffffffffffffffffffffff1660008054906101000a900473ffffffffffffffffffffffffffffffffffffffff1673ffffffffffffffffffffffffffffffffffffffff1614610d86576040517f08c379a00000000000000000000000000000000000000000000000000000000081526004018080602001828103825260208152602001807f4f776e61626c653a2063616c6c6572206973206e6f7420746865206f776e657281525060200191505060405180910390fd5b600073ffffffffffffffffffffffffffffffffffffffff168173ffffffffffffffffffffffffffffffffffffffff161415610e0c576040517f08c379a00000000000000000000000000000000000000000000000000000000081526004018080602001828103825260268152602001806118c26026913960400191505060405180910390fd5b8073ffffffffffffffffffffffffffffffffffffffff1660008054906101000a900473ffffffffffffffffffffffffffffffffffffffff1673ffffffffffffffffffffffffffffffffffffffff167f8be0079c531659141344cd1fd0a4f28419497f9722a3daafe3b4186f6b6457e060405160405180910390a3806000806101000a81548173ffffffffffffffffffffffffffffffffffffffff021916908373ffffffffffffffffffffffffffffffffffffffff16021790555050565b600033905090565b60405180606001604052806000815260200160608152602001606081525090565b828054600181600116156101000203166002900490600052602060002090601f016020900481019282610f285760008555610f6f565b82601f10610f4157805160ff1916838001178555610f6f565b82800160010185558215610f6f579182015b82811115610f6e578251825591602001919060010190610f53565b5b509050610f7c919061100a565b5090565b828054828255906000526020600020908101928215610ff9579160200282015b82811115610ff85782518260006101000a81548173ffffffffffffffffffffffffffffffffffffffff021916908373ffffffffffffffffffffffffffffffffffffffff16021790555091602001919060010190610fa0565b5b509050611006919061100a565b5090565b5b8082111561102357600081600090555060010161100b565b5090565b6000813590506110368161187c565b92915050565b60008135905061104b81611893565b92915050565b600082601f83011261106257600080fd5b8135611075611070826116fa565b6116c9565b9150808252602083016020830185838301111561109157600080fd5b61109c838284611827565b50505092915050565b6000813590506110b4816118aa565b92915050565b6000602082840312156110cc57600080fd5b60006110da84828501611027565b91505092915050565b600080604083850312156110f657600080fd5b600061110485828601611027565b92505060206111158582860161103c565b9150509250929050565b60006020828403121561113157600080fd5b600061113f8482850161103c565b91505092915050565b6000806040838503121561115b57600080fd5b600083013567ffffffffffffffff81111561117557600080fd5b61118185828601611051565b9250506020611192858286016110a5565b9150509250929050565b6000602082840312156111ae57600080fd5b60006111bc848285016110a5565b91505092915050565b60006111d183836111ec565b60208301905092915050565b6111e6816117f1565b82525050565b6111f58161179f565b82525050565b6112048161179f565b82525050565b60006112158261174f565b61121f8185611772565b935061122a8361172a565b8060005b8381101561125b57815161124288826111c5565b975061124d83611765565b92505060018101905061122e565b5085935050505092915050565b611271816117b1565b82525050565b611280816117bd565b82525050565b60006112918261175a565b61129b8185611783565b93506112ab818560208601611836565b6112b48161186b565b840191505092915050565b60006112ca8261175a565b6112d48185611794565b93506112e4818560208601611836565b80840191505092915050565b60008154600181166000811461130d576001811461133357611377565b607f600283041661131e8187611783565b955060ff198316865260208601935050611377565b600282046113418187611783565b955061134c8561173a565b60005b8281101561136e5781548189015260018201915060208101905061134f565b80880195505050505b505092915050565b600061138c601783611783565b91507f426f6f6b2064617461206973206e6f742076616c6964210000000000000000006000830152602082019050919050565b60006113cc601c83611783565b91507f5468697320626f6f6b2077617320616c726561647920616464656421000000006000830152602082019050919050565b600061140c602a83611783565b91507f596f752063616e2072657475726e20626f6f6b207468617420796f7520646f6e60008301527f277420626f72726f7721000000000000000000000000000000000000000000006020830152604082019050919050565b6000611472601b83611783565b91507f5468697320626f6f6b20697320616c72656164792074616b656e2100000000006000830152602082019050919050565b60006114b2601383611783565b91507f5468657265206973206e6f20636f706965732e000000000000000000000000006000830152602082019050919050565b6114ee816117e7565b82525050565b600061150082846112bf565b915081905092915050565b600060208201905061152060008301846111fb565b92915050565b60006020820190508181036000830152611540818461120a565b905092915050565b600060208201905061155d6000830184611268565b92915050565b60006020820190506115786000830184611277565b92915050565b600060408201905081810360008301526115988185611286565b90506115a760208301846114e5565b9392505050565b600060408201905081810360008301526115c881856112f0565b90506115d760208301846111dd565b9392505050565b600060208201905081810360008301526115f78161137f565b9050919050565b60006020820190508181036000830152611617816113bf565b9050919050565b60006020820190508181036000830152611637816113ff565b9050919050565b6000602082019050818103600083015261165781611465565b9050919050565b60006020820190508181036000830152611677816114a5565b9050919050565b600060208201905061169360008301846114e5565b92915050565b60006040820190506116ae60008301856114e5565b81810360208301526116c08184611286565b90509392505050565b6000604051905081810181811067ffffffffffffffff821117156116f0576116ef611869565b5b8060405250919050565b600067ffffffffffffffff82111561171557611714611869565b5b601f19601f8301169050602081019050919050565b6000819050602082019050919050565b60008190508160005260206000209050919050565b600081519050919050565b600081519050919050565b6000602082019050919050565b600082825260208201905092915050565b600082825260208201905092915050565b600081905092915050565b60006117aa826117c7565b9050919050565b60008115159050919050565b6000819050919050565b600073ffffffffffffffffffffffffffffffffffffffff82169050919050565b6000819050919050565b60006117fc82611803565b9050919050565b600061180e82611815565b9050919050565b6000611820826117c7565b9050919050565b82818337600083830152505050565b60005b83811015611854578082015181840152602081019050611839565b83811115611863576000848401525b50505050565bfe5b6000601f19601f8301169050919050565b6118858161179f565b811461189057600080fd5b50565b61189c816117bd565b81146118a757600080fd5b50565b6118b3816117e7565b81146118be57600080fd5b5056fe4f776e61626c653a206e6577206f776e657220697320746865207a65726f2061646472657373a264697066735822122073dca42cae3b9fac87619b5e9bb62b35e01c0bc9d3d3b3c6ecc773550034028d64736f6c63430007050033",
  "source": "// SPDX-License-Identifier: UNLICENSED\npragma solidity ^0.7.5;\npragma experimental ABIEncoderV2;\n\nimport \"@openzeppelin/contracts/access/Ownable.sol\";\n\ncontract BookLibrary is Ownable {\n    \n    struct Book {\n        uint copies;\n        string title;\n        address[] bookBorrowedAddresses;\n    }\n    \n    bytes32[] public bookKey;\n\n    mapping (bytes32 => Book) public books;\n    mapping (address => mapping(bytes32 => bool)) public borrowedBook;\n\n    event LogAddedBook(string title, uint copies);\n    event BookBorrowed(string title, address user);\n    event BookReturned(string title, address user);\n    \n    // Check if book data is valid\n    modifier validBookData(string memory _title, uint _copies) {\n        bytes memory tempTitle = bytes(_title);\n        require(tempTitle.length > 0 && _copies > 0, \"Book data is not valid!\");\n        _;\n    }\n    \n    // Check if book is not already added by title\n    modifier bookDoesNotExist(string memory _title) {\n        require(bytes(books[keccak256(abi.encodePacked(_title))].title).length == 0  , \"This book was already added!\");\n        _;\n    }\n    \n    // Add a book to the library\n    function addBook(string memory _title, uint _copies) public onlyOwner validBookData(_title, _copies) bookDoesNotExist(_title) {\n         address[] memory borrowed;\n         Book memory newBook = Book(_copies, _title, borrowed);\n         books[keccak256(abi.encodePacked(_title))] = newBook;\n         bookKey.push(keccak256(abi.encodePacked(_title)));\n         emit LogAddedBook(_title, _copies);\n    }\n    \n    // Borrow book by id\n    function borrowBook(bytes32 bookId) public {\n        Book storage book = books[bookId];\n        \n        // Must book have copies\n        require(book.copies > 0, \"There is no copies.\");\n        \n        require(!borrowedBook[msg.sender][bookId], \"This book is already taken!\");\n        borrowedBook[msg.sender][bookId] = true;\n        book.bookBorrowedAddresses.push(msg.sender);\n        book.copies--;\n        \n        emit BookBorrowed(book.title, msg.sender);\n    }\n    \n   // Return a book by id\n    function returnBook(bytes32 bookId) public {\n        Book storage book = books[bookId];\n        \n        require(borrowedBook[msg.sender][bookId], \"You can return book that you don't borrow!\");\n        borrowedBook[msg.sender][bookId] = false;\n       \n        book.copies++;\n        \n        emit BookReturned(book.title, msg.sender);\n    }\n    \n    //Return all addressess borrowed a book by id \n    function getAddressesBorrowedBook(bytes32 bookId) public view returns (address[] memory _book) {\n        Book storage book = books[bookId];\n        return book.bookBorrowedAddresses;\n    }\n\n    //Return book borrowed by address and title \n    function getBorrowedByAddress(bytes32 bookId) public view returns (bool _isBorrowed) {\n        bool isBorrowed = borrowedBook[msg.sender][bookId];\n        return isBorrowed;\n    }\n    \n    //Return number of books\n    function getNumberOfBooks() public view returns (uint _numberOfBooks) {\n        return bookKey.length;\n    }\n    \n}",
  "sourcePath": "/Users/ognyanchikov/Projects/Library - course/contracts/BookLibrary.sol",
  "compiler": {
    "name": "solc",
    "version": "0.7.5+commit.eb77ed08.Emscripten.clang",
    "optimizer": false,
    "runs": 200
  },
  "schemaVersion": "2.3.3",
  "updatedAt": "2021-01-27T07:58:25.098Z"
}